{
    "contractName": "Marketplace",
    "abi": [
        {
            "inputs": [
                {
                    "internalType": "uint256",
                    "name": "_feePercent",
                    "type": "uint256"
                }
            ],
            "stateMutability": "nonpayable",
            "type": "constructor"
        },
        {
            "anonymous": false,
            "inputs": [
                {
                    "indexed": false,
                    "internalType": "uint256",
                    "name": "itemId",
                    "type": "uint256"
                },
                {
                    "indexed": true,
                    "internalType": "address",
                    "name": "nft",
                    "type": "address"
                },
                {
                    "indexed": false,
                    "internalType": "uint256",
                    "name": "tokenId",
                    "type": "uint256"
                },
                {
                    "indexed": false,
                    "internalType": "uint256",
                    "name": "price",
                    "type": "uint256"
                },
                {
                    "indexed": true,
                    "internalType": "address",
                    "name": "seller",
                    "type": "address"
                },
                {
                    "indexed": true,
                    "internalType": "address",
                    "name": "buyer",
                    "type": "address"
                }
            ],
            "name": "Bought",
            "type": "event"
        },
        {
            "anonymous": false,
            "inputs": [
                {
                    "indexed": false,
                    "internalType": "uint256",
                    "name": "itemId",
                    "type": "uint256"
                },
                {
                    "indexed": true,
                    "internalType": "address",
                    "name": "nft",
                    "type": "address"
                },
                {
                    "indexed": false,
                    "internalType": "uint256",
                    "name": "tokenId",
                    "type": "uint256"
                },
                {
                    "indexed": false,
                    "internalType": "uint256",
                    "name": "price",
                    "type": "uint256"
                },
                {
                    "indexed": true,
                    "internalType": "address",
                    "name": "seller",
                    "type": "address"
                }
            ],
            "name": "Offered",
            "type": "event"
        },
        {
            "inputs": [],
            "name": "feeAccount",
            "outputs": [
                {
                    "internalType": "address payable",
                    "name": "",
                    "type": "address"
                }
            ],
            "stateMutability": "view",
            "type": "function"
        },
        {
            "inputs": [],
            "name": "feePercent",
            "outputs": [
                {
                    "internalType": "uint256",
                    "name": "",
                    "type": "uint256"
                }
            ],
            "stateMutability": "view",
            "type": "function"
        },
        {
            "inputs": [],
            "name": "fetchListedItems",
            "outputs": [
                {
                    "components": [
                        {
                            "internalType": "uint256",
                            "name": "itemId",
                            "type": "uint256"
                        },
                        {
                            "internalType": "contract IERC721",
                            "name": "nft",
                            "type": "address"
                        },
                        {
                            "internalType": "uint256",
                            "name": "tokenId",
                            "type": "uint256"
                        },
                        {
                            "internalType": "uint256",
                            "name": "price",
                            "type": "uint256"
                        },
                        {
                            "internalType": "address payable",
                            "name": "seller",
                            "type": "address"
                        },
                        {
                            "internalType": "bool",
                            "name": "sold",
                            "type": "bool"
                        }
                    ],
                    "internalType": "struct Marketplace.Item[]",
                    "name": "",
                    "type": "tuple[]"
                }
            ],
            "stateMutability": "view",
            "type": "function"
        },
        {
            "inputs": [
                {
                    "internalType": "uint256",
                    "name": "_itemId",
                    "type": "uint256"
                }
            ],
            "name": "getTotalPrice",
            "outputs": [
                {
                    "internalType": "uint256",
                    "name": "",
                    "type": "uint256"
                }
            ],
            "stateMutability": "view",
            "type": "function"
        },
        {
            "inputs": [],
            "name": "itemCount",
            "outputs": [
                {
                    "internalType": "uint256",
                    "name": "",
                    "type": "uint256"
                }
            ],
            "stateMutability": "view",
            "type": "function"
        },
        {
            "inputs": [
                {
                    "internalType": "uint256",
                    "name": "",
                    "type": "uint256"
                }
            ],
            "name": "items",
            "outputs": [
                {
                    "internalType": "uint256",
                    "name": "itemId",
                    "type": "uint256"
                },
                {
                    "internalType": "contract IERC721",
                    "name": "nft",
                    "type": "address"
                },
                {
                    "internalType": "uint256",
                    "name": "tokenId",
                    "type": "uint256"
                },
                {
                    "internalType": "uint256",
                    "name": "price",
                    "type": "uint256"
                },
                {
                    "internalType": "address payable",
                    "name": "seller",
                    "type": "address"
                },
                {
                    "internalType": "bool",
                    "name": "sold",
                    "type": "bool"
                }
            ],
            "stateMutability": "view",
            "type": "function"
        },
        {
            "inputs": [
                {
                    "internalType": "contract IERC721",
                    "name": "_nft",
                    "type": "address"
                },
                {
                    "internalType": "uint256",
                    "name": "_tokenId",
                    "type": "uint256"
                },
                {
                    "internalType": "uint256",
                    "name": "_price",
                    "type": "uint256"
                }
            ],
            "name": "makeItem",
            "outputs": [],
            "stateMutability": "nonpayable",
            "type": "function"
        },
        {
            "inputs": [
                {
                    "internalType": "uint256",
                    "name": "_itemId",
                    "type": "uint256"
                }
            ],
            "name": "purchaseItem",
            "outputs": [],
            "stateMutability": "payable",
            "type": "function"
        }
    ],
    "bytecode": "60c060405234801561001057600080fd5b50604051610bf8380380610bf883398101604081905261002f91610043565b60016000553360601b60805260a05261005c565b60006020828403121561005557600080fd5b5051919050565b60805160601c60a051610b67610091600039600081816101070152610248015260008181609201526106160152610b676000f3fe60806040526004361061007b5760003560e01c8063ca7dd3751161004e578063ca7dd375146101c8578063cfd31e2c146101e8578063d38ea5bf1461020a578063fa00afc71461021f57600080fd5b806365e17c9d146100805780636bfb0d01146100d15780637fd6f15c146100f5578063bfb231d214610129575b600080fd5b34801561008c57600080fd5b506100b47f000000000000000000000000000000000000000000000000000000000000000081565b6040516001600160a01b0390911681526020015b60405180910390f35b3480156100dd57600080fd5b506100e760015481565b6040519081526020016100c8565b34801561010157600080fd5b506100e77f000000000000000000000000000000000000000000000000000000000000000081565b34801561013557600080fd5b5061018c6101443660046109c3565b60026020819052600091825260409091208054600182015492820154600383015460049093015491936001600160a01b0390811693919290811690600160a01b900460ff1686565b604080519687526001600160a01b03958616602088015286019390935260608501919091529091166080830152151560a082015260c0016100c8565b3480156101d457600080fd5b506100e76101e33660046109c3565b61023f565b3480156101f457600080fd5b506101fd610299565b6040516100c891906109dc565b61021d6102183660046109c3565b61044b565b005b34801561022b57600080fd5b5061021d61023a366004610982565b61076c565b6000606461026d7f000000000000000000000000000000000000000000000000000000000000000082610a64565b6000848152600260205260409020600301546102899190610a9e565b6102939190610a7c565b92915050565b606060008060015b60015481116102ec576000818152600260205260409020600401546001600160a01b03163314156102da57826102d681610ad4565b9350505b806102e481610ad4565b9150506102a1565b5060008267ffffffffffffffff81111561030857610308610b1b565b60405190808252806020026020018201604052801561036857816020015b6040805160c08101825260008082526020808301829052928201819052606082018190526080820181905260a082015282526000199092019101816103265790505b50905060015b6001548111610443576000818152600260205260409020600401546001600160a01b031633141561043157600081815260026020818152604092839020835160c0810185528154815260018201546001600160a01b03908116938201939093529281015493830193909352600383015460608301526004909201549182166080820152600160a01b90910460ff16151560a0820152825183908590811061041757610417610b05565b6020026020010181905250828061042d90610ad4565b9350505b8061043b81610ad4565b91505061036e565b509392505050565b600260005414156104a35760405162461bcd60e51b815260206004820152601f60248201527f5265656e7472616e637947756172643a207265656e7472616e742063616c6c0060448201526064015b60405180910390fd5b600260009081556104b38261023f565b600083815260026020526040902090915082158015906104d557506001548311155b6105175760405162461bcd60e51b81526020600482015260136024820152726974656d20646f65736e27742065786973747360681b604482015260640161049a565b813410156105835760405162461bcd60e51b815260206004820152603360248201527f6e6f7420656e6f75676820657468657220746f20636f766572206974656d20706044820152727269636520616e64206d61726b65742066656560681b606482015260840161049a565b6004810154600160a01b900460ff16156105d35760405162461bcd60e51b81526020600482015260116024820152701a5d195b48185b1c9958591e481cdbdb19607a1b604482015260640161049a565b600481015460038201546040516001600160a01b039092169181156108fc0291906000818181858888f19350505050158015610613573d6000803e3d6000fd5b507f00000000000000000000000000000000000000000000000000000000000000006001600160a01b03166108fc8260030154846106519190610abd565b6040518115909202916000818181858888f19350505050158015610679573d6000803e3d6000fd5b506004818101805460ff60a01b1916600160a01b179055600182015460028301546040516323b872dd60e01b8152309381019390935233602484015260448301526001600160a01b0316906323b872dd90606401600060405180830381600087803b1580156106e757600080fd5b505af11580156106fb573d6000803e3d6000fd5b50505050600481015460018201546002830154600384015460408051888152602081019390935282015233926001600160a01b039081169216907f8b4c9c8a607d67b321582dd8461041b1dc2ceeca70c8b7f37f8e02095cf2e76d9060600160405180910390a45050600160005550565b600260005414156107bf5760405162461bcd60e51b815260206004820152601f60248201527f5265656e7472616e637947756172643a207265656e7472616e742063616c6c00604482015260640161049a565b6002600055806108115760405162461bcd60e51b815260206004820152601f60248201527f5072696365206d7573742062652067726561746572207468616e207a65726f00604482015260640161049a565b6001805490600061082183610ad4565b90915550506040516323b872dd60e01b8152336004820152306024820152604481018390526001600160a01b038416906323b872dd90606401600060405180830381600087803b15801561087457600080fd5b505af1158015610888573d6000803e3d6000fd5b50506040805160c081018252600180548083526001600160a01b0389811660208086018281528688018c815260608089018d81523360808b01818152600060a08d018181529a81526002808952908e90209c518d5595518c8c018054918b166001600160a01b03199092169190911790559351948b01949094555160038a015590516004909801805496511515600160a01b026001600160a81b031990971698909516979097179490941790925592548551908152908101899052938401879052945092507f655a0cf9c8db81512be9a76dc1c5ae5380b8816ce6ad659cd61b715e2999d59a910160405180910390a35050600160005550565b60008060006060848603121561099757600080fd5b83356001600160a01b03811681146109ae57600080fd5b95602085013595506040909401359392505050565b6000602082840312156109d557600080fd5b5035919050565b602080825282518282018190526000919060409081850190868401855b82811015610a5757815180518552868101516001600160a01b03908116888701528682015187870152606080830151908701526080808301519091169086015260a09081015115159085015260c090930192908501906001016109f9565b5091979650505050505050565b60008219821115610a7757610a77610aef565b500190565b600082610a9957634e487b7160e01b600052601260045260246000fd5b500490565b6000816000190483118215151615610ab857610ab8610aef565b500290565b600082821015610acf57610acf610aef565b500390565b6000600019821415610ae857610ae8610aef565b5060010190565b634e487b7160e01b600052601160045260246000fd5b634e487b7160e01b600052603260045260246000fd5b634e487b7160e01b600052604160045260246000fdfea2646970667358221220731d23b6bdab9ac4924fe05c3f342611af61948d0f6af05f0bd5301ad898197064736f6c63430008050033",
    "sourcePath": "f:/Workspace/Solidity/duklerplace/contracts/Marketplace.sol",
    "compiler": {
        "name": "solc",
        "version": "0.8.5+commit.a4f2e591"
    },
    "functionHashes": {
        "feeAccount()": "65e17c9d",
        "feePercent()": "7fd6f15c",
        "fetchListedItems()": "cfd31e2c",
        "getTotalPrice(uint256)": "ca7dd375",
        "itemCount()": "6bfb0d01",
        "items(uint256)": "bfb231d2",
        "makeItem(address,uint256,uint256)": "fa00afc7",
        "purchaseItem(uint256)": "d38ea5bf"
    },
    "gasEstimates": {
        "creation": {
            "codeDepositCost": "583800",
            "executionCost": "infinite",
            "totalCost": "infinite"
        },
        "external": {
            "feeAccount()": "infinite",
            "feePercent()": "infinite",
            "fetchListedItems()": "infinite",
            "getTotalPrice(uint256)": "infinite",
            "itemCount()": "2318",
            "items(uint256)": "11162",
            "makeItem(address,uint256,uint256)": "infinite",
            "purchaseItem(uint256)": "infinite"
        }
    }
}